{
  "_format": "hh-sol-artifact-1",
  "contractName": "Factory",
  "sourceName": "contracts/Factory.sol",
  "abi": [
    {
      "inputs": [],
      "stateMutability": "nonpayable",
      "type": "constructor"
    },
    {
      "anonymous": false,
      "inputs": [
        {
          "indexed": true,
          "internalType": "address",
          "name": "tknAddr",
          "type": "address"
        },
        {
          "indexed": true,
          "internalType": "uint256",
          "name": "tknId",
          "type": "uint256"
        },
        {
          "indexed": false,
          "internalType": "address",
          "name": "rawAddr",
          "type": "address"
        },
        {
          "indexed": false,
          "internalType": "uint256",
          "name": "rawTknId",
          "type": "uint256"
        }
      ],
      "name": "RawMaterial",
      "type": "event"
    },
    {
      "inputs": [
        {
          "internalType": "uint256",
          "name": "N",
          "type": "uint256"
        },
        {
          "internalType": "address[]",
          "name": "RawAddr",
          "type": "address[]"
        },
        {
          "internalType": "uint256[]",
          "name": "RawTknId",
          "type": "uint256[]"
        },
        {
          "internalType": "address",
          "name": "TknAddr",
          "type": "address"
        },
        {
          "internalType": "uint256",
          "name": "TknId",
          "type": "uint256"
        },
        {
          "internalType": "string",
          "name": "ipfsHash",
          "type": "string"
        }
      ],
      "name": "MultiMint",
      "outputs": [],
      "stateMutability": "nonpayable",
      "type": "function"
    },
    {
      "inputs": [],
      "name": "getOwner",
      "outputs": [
        {
          "internalType": "address",
          "name": "",
          "type": "address"
        }
      ],
      "stateMutability": "view",
      "type": "function"
    },
    {
      "inputs": [
        {
          "internalType": "address",
          "name": "TknAddr",
          "type": "address"
        },
        {
          "internalType": "uint256",
          "name": "TknId",
          "type": "uint256"
        },
        {
          "internalType": "string",
          "name": "ipfsHash",
          "type": "string"
        }
      ],
      "name": "singleMint",
      "outputs": [],
      "stateMutability": "nonpayable",
      "type": "function"
    }
  ],
  "bytecode": "0x608060405234801561001057600080fd5b50336000806101000a81548173ffffffffffffffffffffffffffffffffffffffff021916908373ffffffffffffffffffffffffffffffffffffffff160217905550610ba1806100606000396000f3fe608060405234801561001057600080fd5b50600436106100415760003560e01c80630440505e14610046578063893d20e814610062578063f7a600ac14610080575b600080fd5b610060600480360381019061005b9190610628565b61009c565b005b61006a61018a565b60405161007791906107de565b60405180910390f35b61009a60048036038101906100959190610697565b6101b3565b005b60008390508073ffffffffffffffffffffffffffffffffffffffff1663a6bba0a9843060008054906101000a900473ffffffffffffffffffffffffffffffffffffffff16866040518563ffffffff1660e01b81526004016101009493929190610866565b600060405180830381600087803b15801561011a57600080fd5b505af115801561012e573d6000803e3d6000fd5b50505050828473ffffffffffffffffffffffffffffffffffffffff167f3ae1121f2c92c2402ecf5fcf5c7d799001f3d725c6546d27067b9e4bddee778960008060405161017c9291906107f9565b60405180910390a350505050565b60008060009054906101000a900473ffffffffffffffffffffffffffffffffffffffff16905090565b60005b868110156103705760008682815181106101d3576101d2610ab5565b5b6020026020010151905060008054906101000a900473ffffffffffffffffffffffffffffffffffffffff1673ffffffffffffffffffffffffffffffffffffffff168173ffffffffffffffffffffffffffffffffffffffff16636352211e88858151811061024357610242610ab5565b5b60200260200101516040518263ffffffff1660e01b8152600401610267919061084b565b60206040518083038186803b15801561027f57600080fd5b505afa158015610293573d6000803e3d6000fd5b505050506040513d601f19601f820116820180604052508101906102b791906105fb565b73ffffffffffffffffffffffffffffffffffffffff16146102d757600080fd5b838573ffffffffffffffffffffffffffffffffffffffff167f3ae1121f2c92c2402ecf5fcf5c7d799001f3d725c6546d27067b9e4bddee778989858151811061032357610322610ab5565b5b602002602001015189868151811061033e5761033d610ab5565b5b6020026020010151604051610354929190610822565b60405180910390a350808061036890610a3d565b9150506101b6565b5060008390508073ffffffffffffffffffffffffffffffffffffffff1663a6bba0a9843060008054906101000a900473ffffffffffffffffffffffffffffffffffffffff16866040518563ffffffff1660e01b81526004016103d59493929190610866565b600060405180830381600087803b1580156103ef57600080fd5b505af1158015610403573d6000803e3d6000fd5b5050505050505050505050565b600061042361041e846108d7565b6108b2565b9050808382526020820190508285602086028201111561044657610445610b18565b5b60005b85811015610476578161045c8882610532565b845260208401935060208301925050600181019050610449565b5050509392505050565b600061049361048e84610903565b6108b2565b905080838252602082019050828560208602820111156104b6576104b5610b18565b5b60005b858110156104e657816104cc88826105e6565b8452602084019350602083019250506001810190506104b9565b5050509392505050565b60006105036104fe8461092f565b6108b2565b90508281526020810184848401111561051f5761051e610b1d565b5b61052a8482856109ca565b509392505050565b60008135905061054181610b3d565b92915050565b60008151905061055681610b3d565b92915050565b600082601f83011261057157610570610b13565b5b8135610581848260208601610410565b91505092915050565b600082601f83011261059f5761059e610b13565b5b81356105af848260208601610480565b91505092915050565b600082601f8301126105cd576105cc610b13565b5b81356105dd8482602086016104f0565b91505092915050565b6000813590506105f581610b54565b92915050565b60006020828403121561061157610610610b27565b5b600061061f84828501610547565b91505092915050565b60008060006060848603121561064157610640610b27565b5b600061064f86828701610532565b9350506020610660868287016105e6565b925050604084013567ffffffffffffffff81111561068157610680610b22565b5b61068d868287016105b8565b9150509250925092565b60008060008060008060c087890312156106b4576106b3610b27565b5b60006106c289828a016105e6565b965050602087013567ffffffffffffffff8111156106e3576106e2610b22565b5b6106ef89828a0161055c565b955050604087013567ffffffffffffffff8111156107105761070f610b22565b5b61071c89828a0161058a565b945050606061072d89828a01610532565b935050608061073e89828a016105e6565b92505060a087013567ffffffffffffffff81111561075f5761075e610b22565b5b61076b89828a016105b8565b9150509295509295509295565b6107818161097c565b82525050565b610790816109b8565b82525050565b60006107a182610960565b6107ab818561096b565b93506107bb8185602086016109d9565b6107c481610b2c565b840191505092915050565b6107d8816109ae565b82525050565b60006020820190506107f36000830184610778565b92915050565b600060408201905061080e6000830185610778565b61081b6020830184610787565b9392505050565b60006040820190506108376000830185610778565b61084460208301846107cf565b9392505050565b600060208201905061086060008301846107cf565b92915050565b600060808201905061087b60008301876107cf565b6108886020830186610778565b6108956040830185610778565b81810360608301526108a78184610796565b905095945050505050565b60006108bc6108cd565b90506108c88282610a0c565b919050565b6000604051905090565b600067ffffffffffffffff8211156108f2576108f1610ae4565b5b602082029050602081019050919050565b600067ffffffffffffffff82111561091e5761091d610ae4565b5b602082029050602081019050919050565b600067ffffffffffffffff82111561094a57610949610ae4565b5b61095382610b2c565b9050602081019050919050565b600081519050919050565b600082825260208201905092915050565b60006109878261098e565b9050919050565b600073ffffffffffffffffffffffffffffffffffffffff82169050919050565b6000819050919050565b60006109c3826109ae565b9050919050565b82818337600083830152505050565b60005b838110156109f75780820151818401526020810190506109dc565b83811115610a06576000848401525b50505050565b610a1582610b2c565b810181811067ffffffffffffffff82111715610a3457610a33610ae4565b5b80604052505050565b6000610a48826109ae565b91507fffffffffffffffffffffffffffffffffffffffffffffffffffffffffffffffff821415610a7b57610a7a610a86565b5b600182019050919050565b7f4e487b7100000000000000000000000000000000000000000000000000000000600052601160045260246000fd5b7f4e487b7100000000000000000000000000000000000000000000000000000000600052603260045260246000fd5b7f4e487b7100000000000000000000000000000000000000000000000000000000600052604160045260246000fd5b600080fd5b600080fd5b600080fd5b600080fd5b600080fd5b6000601f19601f8301169050919050565b610b468161097c565b8114610b5157600080fd5b50565b610b5d816109ae565b8114610b6857600080fd5b5056fea2646970667358221220ec1d80e92523fb2e164c24185e8a9e7d97eca5afc5ee1df92f5daec2c2e1d07764736f6c63430008070033",
  "linkReferences": {},
  "deployedLinkReferences": {}
}