{
  "_format": "hh-sol-artifact-1",
  "contractName": "Factory",
  "sourceName": "contracts/Factory.sol",
  "abi": [
    {
      "inputs": [],
      "stateMutability": "nonpayable",
      "type": "constructor"
    },
    {
      "anonymous": false,
      "inputs": [
        {
          "indexed": true,
          "internalType": "address",
          "name": "tknAddr",
          "type": "address"
        },
        {
          "indexed": true,
          "internalType": "uint256",
          "name": "tknId",
          "type": "uint256"
        },
        {
          "indexed": false,
          "internalType": "address",
          "name": "rawAddr",
          "type": "address"
        },
        {
          "indexed": false,
          "internalType": "uint256",
          "name": "rawTknId",
          "type": "uint256"
        }
      ],
      "name": "RawMaterial",
      "type": "event"
    },
    {
      "inputs": [
        {
          "internalType": "uint256",
          "name": "N",
          "type": "uint256"
        },
        {
          "internalType": "address[]",
          "name": "RawAddr",
          "type": "address[]"
        },
        {
          "internalType": "uint256[]",
          "name": "RawTknId",
          "type": "uint256[]"
        },
        {
          "internalType": "address",
          "name": "TknAddr",
          "type": "address"
        },
        {
          "internalType": "uint256",
          "name": "TknId",
          "type": "uint256"
        }
      ],
      "name": "MultiMint",
      "outputs": [],
      "stateMutability": "nonpayable",
      "type": "function"
    },
    {
      "inputs": [],
      "name": "getOwner",
      "outputs": [
        {
          "internalType": "address",
          "name": "",
          "type": "address"
        }
      ],
      "stateMutability": "view",
      "type": "function"
    },
    {
      "inputs": [
        {
          "internalType": "address",
          "name": "TknAddr",
          "type": "address"
        },
        {
          "internalType": "uint256",
          "name": "TknId",
          "type": "uint256"
        }
      ],
      "name": "singleMint",
      "outputs": [],
      "stateMutability": "nonpayable",
      "type": "function"
    }
  ],
  "bytecode": "0x608060405234801561001057600080fd5b50336000806101000a81548173ffffffffffffffffffffffffffffffffffffffff021916908373ffffffffffffffffffffffffffffffffffffffff1602179055506109ec806100606000396000f3fe608060405234801561001057600080fd5b50600436106100415760003560e01c806380362c0214610046578063893d20e814610062578063d16b85c814610080575b600080fd5b610060600480360381019061005b91906105f2565b61009c565b005b61006a6102f6565b60405161007791906106d2565b60405180910390f35b61009a600480360381019061009591906105b2565b61031f565b005b60005b858110156102595760008582815181106100bc576100bb610905565b5b6020026020010151905060008054906101000a900473ffffffffffffffffffffffffffffffffffffffff1673ffffffffffffffffffffffffffffffffffffffff168173ffffffffffffffffffffffffffffffffffffffff16636352211e87858151811061012c5761012b610905565b5b60200260200101516040518263ffffffff1660e01b8152600401610150919061073f565b60206040518083038186803b15801561016857600080fd5b505afa15801561017c573d6000803e3d6000fd5b505050506040513d601f19601f820116820180604052508101906101a09190610585565b73ffffffffffffffffffffffffffffffffffffffff16146101c057600080fd5b828473ffffffffffffffffffffffffffffffffffffffff167f3ae1121f2c92c2402ecf5fcf5c7d799001f3d725c6546d27067b9e4bddee778988858151811061020c5761020b610905565b5b602002602001015188868151811061022757610226610905565b5b602002602001015160405161023d929190610716565b60405180910390a35080806102519061088d565b91505061009f565b5060008290508073ffffffffffffffffffffffffffffffffffffffff166371536dff833060008054906101000a900473ffffffffffffffffffffffffffffffffffffffff166040518463ffffffff1660e01b81526004016102bc9392919061075a565b600060405180830381600087803b1580156102d657600080fd5b505af11580156102ea573d6000803e3d6000fd5b50505050505050505050565b60008060009054906101000a900473ffffffffffffffffffffffffffffffffffffffff16905090565b60008290508073ffffffffffffffffffffffffffffffffffffffff166371536dff833060008054906101000a900473ffffffffffffffffffffffffffffffffffffffff166040518463ffffffff1660e01b81526004016103819392919061075a565b600060405180830381600087803b15801561039b57600080fd5b505af11580156103af573d6000803e3d6000fd5b50505050818373ffffffffffffffffffffffffffffffffffffffff167f3ae1121f2c92c2402ecf5fcf5c7d799001f3d725c6546d27067b9e4bddee77896000806040516103fd9291906106ed565b60405180910390a3505050565b600061041d610418846107b6565b610791565b905080838252602082019050828560208602820111156104405761043f610968565b5b60005b85811015610470578161045688826104ea565b845260208401935060208301925050600181019050610443565b5050509392505050565b600061048d610488846107e2565b610791565b905080838252602082019050828560208602820111156104b0576104af610968565b5b60005b858110156104e057816104c68882610570565b8452602084019350602083019250506001810190506104b3565b5050509392505050565b6000813590506104f981610988565b92915050565b60008151905061050e81610988565b92915050565b600082601f83011261052957610528610963565b5b813561053984826020860161040a565b91505092915050565b600082601f83011261055757610556610963565b5b813561056784826020860161047a565b91505092915050565b60008135905061057f8161099f565b92915050565b60006020828403121561059b5761059a610972565b5b60006105a9848285016104ff565b91505092915050565b600080604083850312156105c9576105c8610972565b5b60006105d7858286016104ea565b92505060206105e885828601610570565b9150509250929050565b600080600080600060a0868803121561060e5761060d610972565b5b600061061c88828901610570565b955050602086013567ffffffffffffffff81111561063d5761063c61096d565b5b61064988828901610514565b945050604086013567ffffffffffffffff81111561066a5761066961096d565b5b61067688828901610542565b9350506060610687888289016104ea565b925050608061069888828901610570565b9150509295509295909350565b6106ae8161080e565b82525050565b6106bd8161084a565b82525050565b6106cc81610840565b82525050565b60006020820190506106e760008301846106a5565b92915050565b600060408201905061070260008301856106a5565b61070f60208301846106b4565b9392505050565b600060408201905061072b60008301856106a5565b61073860208301846106c3565b9392505050565b600060208201905061075460008301846106c3565b92915050565b600060608201905061076f60008301866106c3565b61077c60208301856106a5565b61078960408301846106a5565b949350505050565b600061079b6107ac565b90506107a7828261085c565b919050565b6000604051905090565b600067ffffffffffffffff8211156107d1576107d0610934565b5b602082029050602081019050919050565b600067ffffffffffffffff8211156107fd576107fc610934565b5b602082029050602081019050919050565b600061081982610820565b9050919050565b600073ffffffffffffffffffffffffffffffffffffffff82169050919050565b6000819050919050565b600061085582610840565b9050919050565b61086582610977565b810181811067ffffffffffffffff8211171561088457610883610934565b5b80604052505050565b600061089882610840565b91507fffffffffffffffffffffffffffffffffffffffffffffffffffffffffffffffff8214156108cb576108ca6108d6565b5b600182019050919050565b7f4e487b7100000000000000000000000000000000000000000000000000000000600052601160045260246000fd5b7f4e487b7100000000000000000000000000000000000000000000000000000000600052603260045260246000fd5b7f4e487b7100000000000000000000000000000000000000000000000000000000600052604160045260246000fd5b600080fd5b600080fd5b600080fd5b600080fd5b6000601f19601f8301169050919050565b6109918161080e565b811461099c57600080fd5b50565b6109a881610840565b81146109b357600080fd5b5056fea2646970667358221220d052673e009ed670ab7ad4e35ab0d1ed8b0cade3e302f3ecb816f28b40defc0664736f6c63430008070033",
  "linkReferences": {},
  "deployedLinkReferences": {}
}