{
    "_format": "hh-sol-artifact-1",
    "contractName": "Token",
    "sourceName": "contracts/Token.sol",
    "abi": [
        {
            "inputs": [
                {
                    "internalType": "string",
                    "name": "name",
                    "type": "string"
                }
            ],
            "stateMutability": "nonpayable",
            "type": "constructor"
        },
        {
            "anonymous": false,
            "inputs": [
                {
                    "indexed": true,
                    "internalType": "uint256",
                    "name": "TokenID",
                    "type": "uint256"
                },
                {
                    "indexed": false,
                    "internalType": "address",
                    "name": "factoryAddress",
                    "type": "address"
                }
            ],
            "name": "MadeIn",
            "type": "event"
        },
        {
            "anonymous": false,
            "inputs": [
                {
                    "indexed": true,
                    "internalType": "uint256",
                    "name": "TokenId",
                    "type": "uint256"
                },
                {
                    "indexed": false,
                    "internalType": "address",
                    "name": "from",
                    "type": "address"
                },
                {
                    "indexed": false,
                    "internalType": "address",
                    "name": "to",
                    "type": "address"
                }
            ],
            "name": "Transfer",
            "type": "event"
        },
        {
            "inputs": [
                {
                    "internalType": "uint256",
                    "name": "TokenId",
                    "type": "uint256"
                },
                {
                    "internalType": "address",
                    "name": "factoryAddress",
                    "type": "address"
                },
                {
                    "internalType": "address",
                    "name": "_owner",
                    "type": "address"
                }
            ],
            "name": "FactoryMint",
            "outputs": [],
            "stateMutability": "nonpayable",
            "type": "function"
        },
        {
            "inputs": [
                {
                    "internalType": "uint256",
                    "name": "TokenId",
                    "type": "uint256"
                }
            ],
            "name": "Mint",
            "outputs": [],
            "stateMutability": "nonpayable",
            "type": "function"
        },
        {
            "inputs": [],
            "name": "Name",
            "outputs": [
                {
                    "internalType": "string",
                    "name": "",
                    "type": "string"
                }
            ],
            "stateMutability": "view",
            "type": "function"
        },
        {
            "inputs": [
                {
                    "internalType": "uint256",
                    "name": "TokenId",
                    "type": "uint256"
                },
                {
                    "internalType": "address",
                    "name": "to",
                    "type": "address"
                }
            ],
            "name": "TransferTo",
            "outputs": [],
            "stateMutability": "nonpayable",
            "type": "function"
        },
        {
            "inputs": [
                {
                    "internalType": "uint256",
                    "name": "TknId",
                    "type": "uint256"
                }
            ],
            "name": "ownerOf",
            "outputs": [
                {
                    "internalType": "address",
                    "name": "",
                    "type": "address"
                }
            ],
            "stateMutability": "view",
            "type": "function"
        }
    ],
    "bytecode": "0x60806040523480156200001157600080fd5b5060405162000b9c38038062000b9c833981810160405281019062000037919062000185565b80600090805190602001906200004f92919062000057565b50506200035a565b82805462000065906200026b565b90600052602060002090601f016020900481019282620000895760008555620000d5565b82601f10620000a457805160ff1916838001178555620000d5565b82800160010185558215620000d5579182015b82811115620000d4578251825591602001919060010190620000b7565b5b509050620000e49190620000e8565b5090565b5b8082111562000103576000816000905550600101620000e9565b5090565b60006200011e6200011884620001ff565b620001d6565b9050828152602081018484840111156200013d576200013c6200033a565b5b6200014a84828562000235565b509392505050565b600082601f8301126200016a576200016962000335565b5b81516200017c84826020860162000107565b91505092915050565b6000602082840312156200019e576200019d62000344565b5b600082015167ffffffffffffffff811115620001bf57620001be6200033f565b5b620001cd8482850162000152565b91505092915050565b6000620001e2620001f5565b9050620001f08282620002a1565b919050565b6000604051905090565b600067ffffffffffffffff8211156200021d576200021c62000306565b5b620002288262000349565b9050602081019050919050565b60005b838110156200025557808201518184015260208101905062000238565b8381111562000265576000848401525b50505050565b600060028204905060018216806200028457607f821691505b602082108114156200029b576200029a620002d7565b5b50919050565b620002ac8262000349565b810181811067ffffffffffffffff82111715620002ce57620002cd62000306565b5b80604052505050565b7f4e487b7100000000000000000000000000000000000000000000000000000000600052602260045260246000fd5b7f4e487b7100000000000000000000000000000000000000000000000000000000600052604160045260246000fd5b600080fd5b600080fd5b600080fd5b600080fd5b6000601f19601f8301169050919050565b610832806200036a6000396000f3fe608060405234801561001057600080fd5b50600436106100575760003560e01c8063078837031461005c578063447bde81146100785780636352211e1461009457806371536dff146100c45780638052474d146100e0575b600080fd5b6100766004803603810190610071919061055e565b6100fe565b005b610092600480360381019061008d919061058b565b6101fa565b005b6100ae60048036038101906100a9919061055e565b61032f565b6040516100bb9190610666565b60405180910390f35b6100de60048036038101906100d991906105cb565b61036c565b005b6100e86104a2565b6040516100f591906106aa565b60405180910390f35b600073ffffffffffffffffffffffffffffffffffffffff166001600083815260200190815260200160002060009054906101000a900473ffffffffffffffffffffffffffffffffffffffff1673ffffffffffffffffffffffffffffffffffffffff161461016a57600080fd5b336001600083815260200190815260200160002060006101000a81548173ffffffffffffffffffffffffffffffffffffffff021916908373ffffffffffffffffffffffffffffffffffffffff160217905550807f0a429aba3d89849a2db0153e4534d95c46a1d83c8109d73893f55ebc44010ff46000336040516101ef929190610681565b60405180910390a250565b3373ffffffffffffffffffffffffffffffffffffffff166001600084815260200190815260200160002060009054906101000a900473ffffffffffffffffffffffffffffffffffffffff1673ffffffffffffffffffffffffffffffffffffffff161461026557600080fd5b600073ffffffffffffffffffffffffffffffffffffffff168173ffffffffffffffffffffffffffffffffffffffff16141561029f57600080fd5b806001600084815260200190815260200160002060006101000a81548173ffffffffffffffffffffffffffffffffffffffff021916908373ffffffffffffffffffffffffffffffffffffffff160217905550817f0a429aba3d89849a2db0153e4534d95c46a1d83c8109d73893f55ebc44010ff43383604051610323929190610681565b60405180910390a25050565b60006001600083815260200190815260200160002060009054906101000a900473ffffffffffffffffffffffffffffffffffffffff169050919050565b827f735822acb057e8a297c4b5c4d9870dc49d933e83e6a2e059c6cb157c82938dad8360405161039c9190610666565b60405180910390a2600073ffffffffffffffffffffffffffffffffffffffff166001600085815260200190815260200160002060009054906101000a900473ffffffffffffffffffffffffffffffffffffffff1673ffffffffffffffffffffffffffffffffffffffff161461041057600080fd5b806001600085815260200190815260200160002060006101000a81548173ffffffffffffffffffffffffffffffffffffffff021916908373ffffffffffffffffffffffffffffffffffffffff160217905550827f0a429aba3d89849a2db0153e4534d95c46a1d83c8109d73893f55ebc44010ff4600083604051610495929190610681565b60405180910390a2505050565b6060600080546104b190610757565b80601f01602080910402602001604051908101604052809291908181526020018280546104dd90610757565b801561052a5780601f106104ff5761010080835404028352916020019161052a565b820191906000526020600020905b81548152906001019060200180831161050d57829003601f168201915b5050505050905090565b600081359050610543816107ce565b92915050565b600081359050610558816107e5565b92915050565b600060208284031215610574576105736107b8565b5b600061058284828501610549565b91505092915050565b600080604083850312156105a2576105a16107b8565b5b60006105b085828601610549565b92505060206105c185828601610534565b9150509250929050565b6000806000606084860312156105e4576105e36107b8565b5b60006105f286828701610549565b935050602061060386828701610534565b925050604061061486828701610534565b9150509250925092565b610627816106e8565b82525050565b6000610638826106cc565b61064281856106d7565b9350610652818560208601610724565b61065b816107bd565b840191505092915050565b600060208201905061067b600083018461061e565b92915050565b6000604082019050610696600083018561061e565b6106a3602083018461061e565b9392505050565b600060208201905081810360008301526106c4818461062d565b905092915050565b600081519050919050565b600082825260208201905092915050565b60006106f3826106fa565b9050919050565b600073ffffffffffffffffffffffffffffffffffffffff82169050919050565b6000819050919050565b60005b83811015610742578082015181840152602081019050610727565b83811115610751576000848401525b50505050565b6000600282049050600182168061076f57607f821691505b6020821081141561078357610782610789565b5b50919050565b7f4e487b7100000000000000000000000000000000000000000000000000000000600052602260045260246000fd5b600080fd5b6000601f19601f8301169050919050565b6107d7816106e8565b81146107e257600080fd5b50565b6107ee8161071a565b81146107f957600080fd5b5056fea264697066735822122032af302b5554bd042d6eacf006e6d0d089ad00dd4dec00a1e02018d1494199ee64736f6c63430008070033",
    "linkReferences": {},
    "deployedLinkReferences": {}
}