{
  "_format": "hh-sol-artifact-1",
  "contractName": "Token",
  "sourceName": "contracts/Token.sol",
  "abi": [
    {
      "inputs": [
        {
          "internalType": "string",
          "name": "name",
          "type": "string"
        }
      ],
      "stateMutability": "nonpayable",
      "type": "constructor"
    },
    {
      "anonymous": false,
      "inputs": [
        {
          "indexed": true,
          "internalType": "uint256",
          "name": "TokenID",
          "type": "uint256"
        },
        {
          "indexed": false,
          "internalType": "address",
          "name": "factoryAddress",
          "type": "address"
        }
      ],
      "name": "MadeIn",
      "type": "event"
    },
    {
      "anonymous": false,
      "inputs": [
        {
          "indexed": true,
          "internalType": "uint256",
          "name": "TokenId",
          "type": "uint256"
        },
        {
          "indexed": false,
          "internalType": "address",
          "name": "from",
          "type": "address"
        },
        {
          "indexed": false,
          "internalType": "address",
          "name": "to",
          "type": "address"
        },
        {
          "indexed": false,
          "internalType": "string",
          "name": "ipfsHash",
          "type": "string"
        }
      ],
      "name": "Transfer",
      "type": "event"
    },
    {
      "inputs": [
        {
          "internalType": "uint256",
          "name": "TokenId",
          "type": "uint256"
        },
        {
          "internalType": "address",
          "name": "factoryAddress",
          "type": "address"
        },
        {
          "internalType": "address",
          "name": "_owner",
          "type": "address"
        },
        {
          "internalType": "string",
          "name": "ipfsHash",
          "type": "string"
        }
      ],
      "name": "FactoryMint",
      "outputs": [],
      "stateMutability": "nonpayable",
      "type": "function"
    },
    {
      "inputs": [
        {
          "internalType": "uint256",
          "name": "TokenId",
          "type": "uint256"
        }
      ],
      "name": "Mint",
      "outputs": [],
      "stateMutability": "nonpayable",
      "type": "function"
    },
    {
      "inputs": [],
      "name": "Name",
      "outputs": [
        {
          "internalType": "string",
          "name": "",
          "type": "string"
        }
      ],
      "stateMutability": "view",
      "type": "function"
    },
    {
      "inputs": [
        {
          "internalType": "uint256",
          "name": "TokenId",
          "type": "uint256"
        },
        {
          "internalType": "address",
          "name": "to",
          "type": "address"
        },
        {
          "internalType": "string",
          "name": "ipfsHash",
          "type": "string"
        }
      ],
      "name": "TransferTo",
      "outputs": [],
      "stateMutability": "nonpayable",
      "type": "function"
    },
    {
      "inputs": [
        {
          "internalType": "uint256",
          "name": "TknId",
          "type": "uint256"
        }
      ],
      "name": "ownerOf",
      "outputs": [
        {
          "internalType": "address",
          "name": "",
          "type": "address"
        }
      ],
      "stateMutability": "view",
      "type": "function"
    }
  ],
  "bytecode": "0x60806040523480156200001157600080fd5b5060405162000dbc38038062000dbc833981810160405281019062000037919062000185565b80600090805190602001906200004f92919062000057565b50506200035a565b82805462000065906200026b565b90600052602060002090601f016020900481019282620000895760008555620000d5565b82601f10620000a457805160ff1916838001178555620000d5565b82800160010185558215620000d5579182015b82811115620000d4578251825591602001919060010190620000b7565b5b509050620000e49190620000e8565b5090565b5b8082111562000103576000816000905550600101620000e9565b5090565b60006200011e6200011884620001ff565b620001d6565b9050828152602081018484840111156200013d576200013c6200033a565b5b6200014a84828562000235565b509392505050565b600082601f8301126200016a576200016962000335565b5b81516200017c84826020860162000107565b91505092915050565b6000602082840312156200019e576200019d62000344565b5b600082015167ffffffffffffffff811115620001bf57620001be6200033f565b5b620001cd8482850162000152565b91505092915050565b6000620001e2620001f5565b9050620001f08282620002a1565b919050565b6000604051905090565b600067ffffffffffffffff8211156200021d576200021c62000306565b5b620002288262000349565b9050602081019050919050565b60005b838110156200025557808201518184015260208101905062000238565b8381111562000265576000848401525b50505050565b600060028204905060018216806200028457607f821691505b602082108114156200029b576200029a620002d7565b5b50919050565b620002ac8262000349565b810181811067ffffffffffffffff82111715620002ce57620002cd62000306565b5b80604052505050565b7f4e487b7100000000000000000000000000000000000000000000000000000000600052602260045260246000fd5b7f4e487b7100000000000000000000000000000000000000000000000000000000600052604160045260246000fd5b600080fd5b600080fd5b600080fd5b600080fd5b6000601f19601f8301169050919050565b610a52806200036a6000396000f3fe608060405234801561001057600080fd5b50600436106100575760003560e01c8063078837031461005c5780636352211e146100785780638052474d146100a8578063a6bba0a9146100c6578063df9d0411146100e2575b600080fd5b610076600480360381019061007191906105d4565b6100fe565b005b610092600480360381019061008d91906105d4565b6101fa565b60405161009f919061075e565b60405180910390f35b6100b0610237565b6040516100bd91906107f3565b60405180910390f35b6100e060048036038101906100db9190610601565b6102c9565b005b6100fc60048036038101906100f79190610684565b610402565b005b600073ffffffffffffffffffffffffffffffffffffffff166001600083815260200190815260200160002060009054906101000a900473ffffffffffffffffffffffffffffffffffffffff1673ffffffffffffffffffffffffffffffffffffffff161461016a57600080fd5b336001600083815260200190815260200160002060006101000a81548173ffffffffffffffffffffffffffffffffffffffff021916908373ffffffffffffffffffffffffffffffffffffffff160217905550807f1007ab9669802ce86aec1bb4ad8306485b5cbf534cf2b2ea20a51155562fa76d6000336040516101ef9291906107b7565b60405180910390a250565b60006001600083815260200190815260200160002060009054906101000a900473ffffffffffffffffffffffffffffffffffffffff169050919050565b60606000805461024690610905565b80601f016020809104026020016040519081016040528092919081815260200182805461027290610905565b80156102bf5780601f10610294576101008083540402835291602001916102bf565b820191906000526020600020905b8154815290600101906020018083116102a257829003601f168201915b5050505050905090565b837f735822acb057e8a297c4b5c4d9870dc49d933e83e6a2e059c6cb157c82938dad846040516102f9919061075e565b60405180910390a2600073ffffffffffffffffffffffffffffffffffffffff166001600086815260200190815260200160002060009054906101000a900473ffffffffffffffffffffffffffffffffffffffff1673ffffffffffffffffffffffffffffffffffffffff161461036d57600080fd5b816001600086815260200190815260200160002060006101000a81548173ffffffffffffffffffffffffffffffffffffffff021916908373ffffffffffffffffffffffffffffffffffffffff160217905550837f1007ab9669802ce86aec1bb4ad8306485b5cbf534cf2b2ea20a51155562fa76d600084846040516103f493929190610779565b60405180910390a250505050565b3373ffffffffffffffffffffffffffffffffffffffff166001600085815260200190815260200160002060009054906101000a900473ffffffffffffffffffffffffffffffffffffffff1673ffffffffffffffffffffffffffffffffffffffff161461046d57600080fd5b600073ffffffffffffffffffffffffffffffffffffffff168273ffffffffffffffffffffffffffffffffffffffff1614156104a757600080fd5b816001600085815260200190815260200160002060006101000a81548173ffffffffffffffffffffffffffffffffffffffff021916908373ffffffffffffffffffffffffffffffffffffffff160217905550827f1007ab9669802ce86aec1bb4ad8306485b5cbf534cf2b2ea20a51155562fa76d33848460405161052d93929190610779565b60405180910390a2505050565b600061054d6105488461083a565b610815565b905082815260208101848484011115610569576105686109cb565b5b6105748482856108c3565b509392505050565b60008135905061058b816109ee565b92915050565b600082601f8301126105a6576105a56109c6565b5b81356105b684826020860161053a565b91505092915050565b6000813590506105ce81610a05565b92915050565b6000602082840312156105ea576105e96109d5565b5b60006105f8848285016105bf565b91505092915050565b6000806000806080858703121561061b5761061a6109d5565b5b6000610629878288016105bf565b945050602061063a8782880161057c565b935050604061064b8782880161057c565b925050606085013567ffffffffffffffff81111561066c5761066b6109d0565b5b61067887828801610591565b91505092959194509250565b60008060006060848603121561069d5761069c6109d5565b5b60006106ab868287016105bf565b93505060206106bc8682870161057c565b925050604084013567ffffffffffffffff8111156106dd576106dc6109d0565b5b6106e986828701610591565b9150509250925092565b6106fc81610887565b82525050565b600061070d8261086b565b6107178185610876565b93506107278185602086016108d2565b610730816109da565b840191505092915050565b6000610748600083610876565b9150610753826109eb565b600082019050919050565b600060208201905061077360008301846106f3565b92915050565b600060608201905061078e60008301866106f3565b61079b60208301856106f3565b81810360408301526107ad8184610702565b9050949350505050565b60006060820190506107cc60008301856106f3565b6107d960208301846106f3565b81810360408301526107ea8161073b565b90509392505050565b6000602082019050818103600083015261080d8184610702565b905092915050565b600061081f610830565b905061082b8282610937565b919050565b6000604051905090565b600067ffffffffffffffff82111561085557610854610997565b5b61085e826109da565b9050602081019050919050565b600081519050919050565b600082825260208201905092915050565b600061089282610899565b9050919050565b600073ffffffffffffffffffffffffffffffffffffffff82169050919050565b6000819050919050565b82818337600083830152505050565b60005b838110156108f05780820151818401526020810190506108d5565b838111156108ff576000848401525b50505050565b6000600282049050600182168061091d57607f821691505b6020821081141561093157610930610968565b5b50919050565b610940826109da565b810181811067ffffffffffffffff8211171561095f5761095e610997565b5b80604052505050565b7f4e487b7100000000000000000000000000000000000000000000000000000000600052602260045260246000fd5b7f4e487b7100000000000000000000000000000000000000000000000000000000600052604160045260246000fd5b600080fd5b600080fd5b600080fd5b600080fd5b6000601f19601f8301169050919050565b50565b6109f781610887565b8114610a0257600080fd5b50565b610a0e816108b9565b8114610a1957600080fd5b5056fea2646970667358221220301a00c03eb6db98af42cea0839094120f4521b9f7238914c6395b3be95325ff64736f6c63430008070033",
  "linkReferences": {},
  "deployedLinkReferences": {}
}